{
  "contractName": "Marketplace",
  "abi": [
    {
      "constant": false,
      "inputs": [],
      "name": "renounceOwnership",
      "outputs": [],
      "payable": false,
      "stateMutability": "nonpayable",
      "type": "function"
    },
    {
      "constant": true,
      "inputs": [
        {
          "name": "",
          "type": "uint256"
        }
      ],
      "name": "products",
      "outputs": [
        {
          "name": "productId",
          "type": "uint256"
        },
        {
          "name": "price",
          "type": "uint256"
        },
        {
          "name": "quantity",
          "type": "uint256"
        },
        {
          "name": "tokenstoReward",
          "type": "uint256"
        },
        {
          "name": "seller",
          "type": "address"
        }
      ],
      "payable": false,
      "stateMutability": "view",
      "type": "function"
    },
    {
      "constant": true,
      "inputs": [],
      "name": "contractPaused",
      "outputs": [
        {
          "name": "",
          "type": "bool"
        }
      ],
      "payable": false,
      "stateMutability": "view",
      "type": "function"
    },
    {
      "constant": true,
      "inputs": [],
      "name": "owner",
      "outputs": [
        {
          "name": "",
          "type": "address"
        }
      ],
      "payable": false,
      "stateMutability": "view",
      "type": "function"
    },
    {
      "constant": true,
      "inputs": [],
      "name": "isOwner",
      "outputs": [
        {
          "name": "",
          "type": "bool"
        }
      ],
      "payable": false,
      "stateMutability": "view",
      "type": "function"
    },
    {
      "constant": true,
      "inputs": [],
      "name": "totalProducts",
      "outputs": [
        {
          "name": "",
          "type": "uint256"
        }
      ],
      "payable": false,
      "stateMutability": "view",
      "type": "function"
    },
    {
      "constant": true,
      "inputs": [
        {
          "name": "",
          "type": "address"
        },
        {
          "name": "",
          "type": "uint256"
        }
      ],
      "name": "salesByUser",
      "outputs": [
        {
          "name": "",
          "type": "uint256"
        }
      ],
      "payable": false,
      "stateMutability": "view",
      "type": "function"
    },
    {
      "constant": true,
      "inputs": [],
      "name": "salesFee",
      "outputs": [
        {
          "name": "",
          "type": "uint256"
        }
      ],
      "payable": false,
      "stateMutability": "view",
      "type": "function"
    },
    {
      "constant": false,
      "inputs": [
        {
          "name": "newOwner",
          "type": "address"
        }
      ],
      "name": "transferOwnership",
      "outputs": [],
      "payable": false,
      "stateMutability": "nonpayable",
      "type": "function"
    },
    {
      "constant": true,
      "inputs": [],
      "name": "token",
      "outputs": [
        {
          "name": "",
          "type": "address"
        }
      ],
      "payable": false,
      "stateMutability": "view",
      "type": "function"
    },
    {
      "inputs": [
        {
          "name": "_token",
          "type": "address"
        }
      ],
      "payable": false,
      "stateMutability": "nonpayable",
      "type": "constructor"
    },
    {
      "payable": true,
      "stateMutability": "payable",
      "type": "fallback"
    },
    {
      "anonymous": false,
      "inputs": [
        {
          "indexed": false,
          "name": "productId",
          "type": "uint256"
        },
        {
          "indexed": false,
          "name": "price",
          "type": "uint256"
        },
        {
          "indexed": false,
          "name": "quantity",
          "type": "uint256"
        },
        {
          "indexed": false,
          "name": "seller",
          "type": "address"
        }
      ],
      "name": "LogProductAdded",
      "type": "event"
    },
    {
      "anonymous": false,
      "inputs": [
        {
          "indexed": false,
          "name": "productId",
          "type": "uint256"
        },
        {
          "indexed": false,
          "name": "price",
          "type": "uint256"
        },
        {
          "indexed": false,
          "name": "quantity",
          "type": "uint256"
        },
        {
          "indexed": true,
          "name": "buyer",
          "type": "address"
        }
      ],
      "name": "LogProductSold",
      "type": "event"
    },
    {
      "anonymous": false,
      "inputs": [
        {
          "indexed": false,
          "name": "productId",
          "type": "uint256"
        },
        {
          "indexed": false,
          "name": "price",
          "type": "uint256"
        },
        {
          "indexed": false,
          "name": "quantity",
          "type": "uint256"
        },
        {
          "indexed": false,
          "name": "tokensToReward",
          "type": "uint256"
        }
      ],
      "name": "LogProductUpdated",
      "type": "event"
    },
    {
      "anonymous": false,
      "inputs": [
        {
          "indexed": true,
          "name": "previousOwner",
          "type": "address"
        },
        {
          "indexed": true,
          "name": "newOwner",
          "type": "address"
        }
      ],
      "name": "OwnershipTransferred",
      "type": "event"
    },
    {
      "constant": false,
      "inputs": [],
      "name": "toggleContractPaused",
      "outputs": [],
      "payable": false,
      "stateMutability": "nonpayable",
      "type": "function"
    },
    {
      "constant": false,
      "inputs": [
        {
          "name": "_token",
          "type": "address"
        }
      ],
      "name": "updateTokenContract",
      "outputs": [],
      "payable": false,
      "stateMutability": "nonpayable",
      "type": "function"
    },
    {
      "constant": false,
      "inputs": [
        {
          "name": "_salesFee",
          "type": "uint256"
        }
      ],
      "name": "updateSalesFee",
      "outputs": [],
      "payable": false,
      "stateMutability": "nonpayable",
      "type": "function"
    },
    {
      "constant": false,
      "inputs": [
        {
          "name": "_price",
          "type": "uint256"
        },
        {
          "name": "_quantity",
          "type": "uint256"
        },
        {
          "name": "_tokenstoReward",
          "type": "uint256"
        }
      ],
      "name": "newProduct",
      "outputs": [
        {
          "name": "",
          "type": "bool"
        }
      ],
      "payable": false,
      "stateMutability": "nonpayable",
      "type": "function"
    },
    {
      "constant": false,
      "inputs": [
        {
          "name": "productId",
          "type": "uint256"
        },
        {
          "name": "_price",
          "type": "uint256"
        },
        {
          "name": "_quantity",
          "type": "uint256"
        },
        {
          "name": "_tokensToReward",
          "type": "uint256"
        }
      ],
      "name": "updateProduct",
      "outputs": [],
      "payable": false,
      "stateMutability": "nonpayable",
      "type": "function"
    },
    {
      "constant": false,
      "inputs": [
        {
          "name": "productId",
          "type": "uint256"
        },
        {
          "name": "amountToBuy",
          "type": "uint256"
        }
      ],
      "name": "buyProduct",
      "outputs": [],
      "payable": true,
      "stateMutability": "payable",
      "type": "function"
    },
    {
      "constant": false,
      "inputs": [],
      "name": "kill",
      "outputs": [],
      "payable": false,
      "stateMutability": "nonpayable",
      "type": "function"
    }
  ],
  "bytecode": "0x6080604052600a60025534801561001557600080fd5b506040516020806113688339810180604052602081101561003557600080fd5b50516100486401000000006100be810204565b60008054600160a060020a031916600160a060020a03928316178082556040519216917f8be0079c531659141344cd1fd0a4f28419497f9722a3daafe3b4186f6b6457e0908290a3600180805560038054600160a060020a031916600160a060020a0393909316929092179091556004556100c2565b3390565b611297806100d16000396000f3fe6080604052600436106100f05763ffffffff7c01000000000000000000000000000000000000000000000000000000006000350416633397ae0c811461014057806341c0e1b51461017e57806353b6286614610193578063715018a6146101b65780637acc0b20146101cb5780638a67456a146102295780638bcfe27b146102525780638da5cb5b146102675780638f32d59b14610298578063989ced26146102ad5780639b9d326d146102e05780639ca91c2014610307578063b050191f14610340578063b6d0ba2f14610355578063de46df7b1461037f578063f2fde38b146103b5578063fc0c546a146103e8575b6040805160e560020a62461bcd02815260206004820152601b60248201527f506c656173652075736520636f72726563742066756e6374696f6e0000000000604482015290519081900360640190fd5b34801561014c57600080fd5b5061017c6004803603608081101561016357600080fd5b50803590602081013590604081013590606001356103fd565b005b34801561018a57600080fd5b5061017c610509565b61017c600480360360408110156101a957600080fd5b508035906020013561058b565b3480156101c257600080fd5b5061017c6108a0565b3480156101d757600080fd5b506101f5600480360360208110156101ee57600080fd5b5035610943565b604080519586526020860194909452848401929092526060840152600160a060020a03166080830152519081900360a00190f35b34801561023557600080fd5b5061023e61097b565b604080519115158252519081900360200190f35b34801561025e57600080fd5b5061017c61099c565b34801561027357600080fd5b5061027c610a2b565b60408051600160a060020a039092168252519081900360200190f35b3480156102a457600080fd5b5061023e610a3a565b3480156102b957600080fd5b5061017c600480360360208110156102d057600080fd5b5035600160a060020a0316610a5e565b3480156102ec57600080fd5b506102f5610ad9565b60408051918252519081900360200190f35b34801561031357600080fd5b506102f56004803603604081101561032a57600080fd5b50600160a060020a038135169060200135610adf565b34801561034c57600080fd5b506102f5610afc565b34801561036157600080fd5b5061017c6004803603602081101561037857600080fd5b5035610b02565b34801561038b57600080fd5b5061023e600480360360608110156103a257600080fd5b5080359060208101359060400135610b53565b3480156103c157600080fd5b5061017c600480360360208110156103d857600080fd5b5035600160a060020a0316610ca6565b3480156103f457600080fd5b5061027c610cfe565b6000848152600560205260409020600401548490600160a060020a03163314610496576040805160e560020a62461bcd02815260206004820152602360248201527f596f7520617265206e6f74207468652073656c6c6572206f662074686973206960448201527f74656d0000000000000000000000000000000000000000000000000000000000606482015290519081900360840190fd5b60008581526005602090815260409182902060018101879055600281018690556003810185905582518881529182018790528183018690526060820185905291517fa731db57e1ef28ac2429cf6ae6c04f25c6951c89b3bf291738d17727c94bffc59181900360800190a1505050505050565b610511610a3a565b1515610555576040805160e560020a62461bcd028152602060048201819052602482015260008051602061124c833981519152604482015290519081900360640190fd5b61055d610a2b565b600160a060020a031633600160a060020a031614156105895761057e610a2b565b600160a060020a0316ff5b565b60035474010000000000000000000000000000000000000000900460ff16156105fe576040805160e560020a62461bcd02815260206004820152601260248201527f636f6e7472616374206973207061757365640000000000000000000000000000604482015290519081900360640190fd5b6000828152600560205260409020600201548290829081111561066b576040805160e560020a62461bcd02815260206004820152601d60248201527f4e6f7420656e6f7567682070726f647563747320617661696c61626c65000000604482015290519081900360640190fd5b60008481526005602052604090206001015461068d908463ffffffff610d0d16565b3481111561069a57600080fd5b600180548101908190556000868152600560205260409020600201546106c6908663ffffffff610db216565b60008781526005602090815260408083206002019390935533825260068152828220898352905220546106ff908663ffffffff610df416565b3360009081526006602090815260408083208a845282528083209390935560025460059091529181206001015490916107619160649161075591610749908b63ffffffff610d0d16565b9063ffffffff610d0d16565b9063ffffffff610e5116565b905061077461076e610a2b565b82610e93565b6000878152600560205260408120600101546107a890839061079c908a63ffffffff610d0d16565b9063ffffffff610db216565b6000898152600560205260409020600401549091506107d090600160a060020a031682610e93565b6107da8888610f43565b6000888152600560209081526040918290206001015482518b815291820152808201899052905133917f617866958d7af6d778dbca9b1303371f36ec505c5b758ce316a392e8d8e8af84919081900360600190a250506001548114610889576040805160e560020a62461bcd02815260206004820152601f60248201527f5265656e7472616e637947756172643a207265656e7472616e742063616c6c00604482015290519081900360640190fd5b50348190036108983382610e93565b505050505050565b6108a8610a3a565b15156108ec576040805160e560020a62461bcd028152602060048201819052602482015260008051602061124c833981519152604482015290519081900360640190fd5b60008054604051600160a060020a03909116907f8be0079c531659141344cd1fd0a4f28419497f9722a3daafe3b4186f6b6457e0908390a36000805473ffffffffffffffffffffffffffffffffffffffff19169055565b6005602052600090815260409020805460018201546002830154600384015460049094015492939192909190600160a060020a031685565b60035474010000000000000000000000000000000000000000900460ff1681565b6109a4610a3a565b15156109e8576040805160e560020a62461bcd028152602060048201819052602482015260008051602061124c833981519152604482015290519081900360640190fd5b6003805474ff0000000000000000000000000000000000000000198116740100000000000000000000000000000000000000009182900460ff1615909102179055565b600054600160a060020a031690565b60008054600160a060020a0316610a4f611052565b600160a060020a031614905090565b610a66610a3a565b1515610aaa576040805160e560020a62461bcd028152602060048201819052602482015260008051602061124c833981519152604482015290519081900360640190fd5b6003805473ffffffffffffffffffffffffffffffffffffffff1916600160a060020a0392909216919091179055565b60045481565b600660209081526000928352604080842090915290825290205481565b60025481565b610b0a610a3a565b1515610b4e576040805160e560020a62461bcd028152602060048201819052602482015260008051602061124c833981519152604482015290519081900360640190fd5b600255565b60035460009074010000000000000000000000000000000000000000900460ff1615610bc9576040805160e560020a62461bcd02815260206004820152601260248201527f636f6e7472616374206973207061757365640000000000000000000000000000604482015290519081900360640190fd5b6040805160a08101825260048054808352602080840189815284860189815260608087018a8152336080808a01828152600098895260058852978b902099518a5594516001808b0191909155935160028a0155905160038901559451968601805473ffffffffffffffffffffffffffffffffffffffff1916600160a060020a0390981697909717909655845490810190945585519384529083018990528285018890529282015291517f93e4d53f4b15879a0c4e6300ac423856329586385e0acf4cc5ae2feb9c48fe949281900390910190a15060019392505050565b610cae610a3a565b1515610cf2576040805160e560020a62461bcd028152602060048201819052602482015260008051602061124c833981519152604482015290519081900360640190fd5b610cfb81611056565b50565b600354600160a060020a031681565b6000821515610d1e57506000610dac565b828202828482811515610d2d57fe5b0414610da9576040805160e560020a62461bcd02815260206004820152602160248201527f536166654d6174683a206d756c7469706c69636174696f6e206f766572666c6f60448201527f7700000000000000000000000000000000000000000000000000000000000000606482015290519081900360840190fd5b90505b92915050565b6000610da983836040805190810160405280601e81526020017f536166654d6174683a207375627472616374696f6e206f766572666c6f770000815250611144565b600082820183811015610da9576040805160e560020a62461bcd02815260206004820152601b60248201527f536166654d6174683a206164646974696f6e206f766572666c6f770000000000604482015290519081900360640190fd5b6000610da983836040805190810160405280601a81526020017f536166654d6174683a206469766973696f6e206279207a65726f0000000000008152506111de565b604051600090600160a060020a0384169083908381818185875af1925050503d8060008114610ede576040519150601f19603f3d011682016040523d82523d6000602084013e610ee3565b606091505b50509050801515610f3e576040805160e560020a62461bcd02815260206004820152601060248201527f5472616e73666572206661696c65642e00000000000000000000000000000000604482015290519081900360640190fd5b505050565b6000828152600560209081526040808320600390810154905482517f40c10f19000000000000000000000000000000000000000000000000000000008152336004820152670de0b6b3a7640000928702928302602482015292519194600160a060020a03909116936340c10f19936044808201949293918390030190829087803b158015610fd057600080fd5b505af1158015610fe4573d6000803e3d6000fd5b505050506040513d6020811015610ffa57600080fd5b50511515610f3e576040805160e560020a62461bcd02815260206004820152601f60248201527f52657761726420746f6b656e7320636f756c64206e6f742062652073656e7400604482015290519081900360640190fd5b3390565b600160a060020a03811615156110dc576040805160e560020a62461bcd02815260206004820152602660248201527f4f776e61626c653a206e6577206f776e657220697320746865207a65726f206160448201527f6464726573730000000000000000000000000000000000000000000000000000606482015290519081900360840190fd5b60008054604051600160a060020a03808516939216917f8be0079c531659141344cd1fd0a4f28419497f9722a3daafe3b4186f6b6457e091a36000805473ffffffffffffffffffffffffffffffffffffffff1916600160a060020a0392909216919091179055565b600081848411156111d65760405160e560020a62461bcd0281526004018080602001828103825283818151815260200191508051906020019080838360005b8381101561119b578181015183820152602001611183565b50505050905090810190601f1680156111c85780820380516001836020036101000a031916815260200191505b509250505060405180910390fd5b505050900390565b6000818184116112335760405160e560020a62461bcd0281526004018080602001828103825283818151815260200191508051906020019080838360008381101561119b578181015183820152602001611183565b506000838581151561124157fe5b049594505050505056fe4f776e61626c653a2063616c6c6572206973206e6f7420746865206f776e6572a165627a7a72305820148395f89a8b360610cc03aeafaf202fe75cde5a4533b4c896aaf8111b41bf8d0029",
  "source": "pragma solidity ^0.5.0;\n\nimport \"@openzeppelin/contracts/ownership/Ownable.sol\";\nimport \"@openzeppelin/contracts/math/SafeMath.sol\";\nimport \"@openzeppelin/contracts/utils/ReentrancyGuard.sol\";\n\nimport \"./RewardToken.sol\";\n\n/// @title Marketplace and Reward System with ERC20 tokens (RT)\n/// @author paulofaulstich\n/// @notice Clients can add new products to the Marketplace, specifying amount to sell (inventory)\n/// price and Reward tokens to send to the buyer for each product bought. Buyers can also buy\n/// products, specifying the amount and product Id. For each sale, there is a fee sent to the owner\n/// of the marketplace and the rest will go to the client (seller)\ncontract Marketplace is Ownable, ReentrancyGuard {\n    // Use safemath for uint types\n    using SafeMath for uint256;\n\n    // === STATE VARIABLES ===\n\n    // Fee collected by the owner\n    uint256 public salesFee = 10; // 10% of sales\n\n    // Instance of the Reward Token Contract\n    RewardToken public token;\n\n    // Used for emergency break\n    bool public contractPaused;\n\n    // Store the amount of items in the Marketplace\n    uint256 public totalProducts;\n\n    // Keep track of the item with key as product id\n    mapping(uint256 => Product) public products;\n\n    // Keep track fo the products and quantity owned by each buyer\n    // buyer => productId => amountOwned\n    mapping(address => mapping(uint256 => uint256)) public salesByUser;\n\n    // Structure of a Product in the Marketplace\n    struct Product {\n        uint256 productId;\n        uint256 price;\n        uint256 quantity;\n        uint256 tokenstoReward;\n        address payable seller;\n    }\n\n    // === EVENTS ===\n    event LogProductAdded(\n        uint256 productId,\n        uint256 price,\n        uint256 quantity,\n        address seller\n    );\n\n    event LogProductSold(\n        uint256 productId,\n        uint256 price,\n        uint256 quantity,\n        address indexed buyer\n    );\n\n    event LogProductUpdated(\n        uint256 productId,\n        uint256 price,\n        uint256 quantity,\n        uint256 tokensToReward\n    );\n\n    // === MODIFIERS ===\n    /// @dev Only the seller for given product Id can call this function\n    modifier onlySeller(uint256 productId) {\n        require(\n            msg.sender == products[productId].seller,\n            \"You are not the seller of this item\"\n        );\n        _;\n    }\n\n    /// @dev Checks if enough funds where sent to the function\n    modifier paidEnough(uint256 amountToPay) {\n        require(msg.value >= amountToPay);\n        _;\n        uint256 amountToRefund = msg.value - amountToPay;\n        safeTransfer(msg.sender, amountToRefund);\n\n    }\n\n    /// @dev Checks if there are enough products available in the inventory for this product id\n    modifier onlyAvailable(uint256 productId, uint256 amountToBuy) {\n        require(\n            products[productId].quantity >= amountToBuy,\n            \"Not enough products available\"\n        );\n        _;\n    }\n\n    /// @dev prevents functions to be executed\n    modifier stopInEmergency {\n        require(!contractPaused, \"contract is paused\");\n        _;\n    }\n\n    // === MAIN FUNCTIONS ===\n\n    /// @notice Initialize contract with default variables\n    /// @dev Reward Token contract should be deployed first\n    /// @param _token address of the Reward Token\n    constructor(RewardToken _token) public {\n        token = _token;\n        totalProducts = 1;\n    }\n\n    /// @notice Emergency stop for most function in the contract\n    function toggleContractPaused() external onlyOwner {\n        contractPaused = !contractPaused;\n    }\n\n    /// @notice Update Reward Token contract address\n    function updateTokenContract(RewardToken _token) external onlyOwner {\n        token = _token;\n    }\n\n    /// @notice Update Reward Token contract address\n    function updateSalesFee(uint256 _salesFee) external onlyOwner {\n        salesFee = _salesFee;\n    }\n\n    /// @notice Emergency stop for most function in the contract\n    /// @param to address to send funds to\n    /// @param amount amount of wei to send\n    function safeTransfer(address to, uint256 amount) internal {\n        (bool success, ) = to.call.value(amount)(\"\");\n        require(success, \"Transfer failed.\");\n    }\n\n    /// @notice Add a new product to the Marketplace\n    /// @dev for the purpose of this project, anyone can add an product\n    /// @param _price price for an individual product\n    /// @param _quantity amount of products to make available for sale\n    /// @param _tokenstoReward amount of RT tokens to reward the buyer for product purchased\n    /// @return true if transaction is successful\n    function newProduct(\n        uint256 _price,\n        uint256 _quantity,\n        uint256 _tokenstoReward\n    ) external stopInEmergency returns (bool) {\n        products[totalProducts] = Product({\n            productId: totalProducts,\n            price: _price,\n            quantity: _quantity,\n            tokenstoReward: _tokenstoReward,\n            seller: msg.sender\n        });\n\n        totalProducts++;\n\n        emit LogProductAdded(totalProducts - 1, _price, _quantity, msg.sender);\n        return true;\n    }\n\n    /// @notice Update Existing product\n    /// @dev can only be called by the seller of the product\n    function updateProduct(\n        uint256 productId,\n        uint256 _price,\n        uint256 _quantity,\n        uint256 _tokensToReward\n    ) external onlySeller(productId) {\n        Product storage p = products[productId];\n        p.price = _price;\n        p.quantity = _quantity;\n        p.tokenstoReward = _tokensToReward;\n\n        emit LogProductUpdated(productId, _price, _quantity, _tokensToReward);\n    }\n\n    /// @notice Buy a product from the marketplace\n    /// @dev for the purpose of this project, anyone can add an item\n    /// @param productId id of the product to buy\n    /// @param amountToBuy amount of products to buy from previous id\n    /// @return true if transaction is successful\n    function buyProduct(uint256 productId, uint256 amountToBuy)\n        external\n        payable\n        stopInEmergency\n        onlyAvailable(productId, amountToBuy)\n        paidEnough(products[productId].price.mul(amountToBuy))\n        nonReentrant\n    {\n        // Subtract amount of product to buy from the inventory\n        products[productId].quantity = products[productId].quantity.sub(\n            amountToBuy\n        );\n\n        // Update buyers product balances\n        salesByUser[msg.sender][productId] = salesByUser[msg.sender][productId]\n            .add(amountToBuy);\n\n        // Calculate fees collected by owner in this sale and make transfer\n        uint256 feesToCollect = products[productId]\n            .price\n            .mul(amountToBuy)\n            .mul(salesFee)\n            .div(100);\n        safeTransfer(owner(), feesToCollect);\n\n        uint256 sellerReceives = products[productId].price.mul(amountToBuy).sub(\n            feesToCollect\n        );\n        safeTransfer(products[productId].seller, sellerReceives);\n\n        // Send reward tokens to caller(buyer)\n        rewardTokens(productId, amountToBuy);\n\n        emit LogProductSold(\n            productId,\n            products[productId].price,\n            amountToBuy,\n            msg.sender\n        );\n    }\n\n    /// @notice Send reward tokens to buyers\n    /// @dev for the purpose of this project, anyone can add an item\n    /// @param productId id of the product to buy\n    /// @param amountToBuy amount of products to buy from previous id\n    /// @return true if transaction is successful\n    function rewardTokens(uint256 productId, uint256 amountToBuy) internal {\n        uint256 amountToReward = products[productId].tokenstoReward *\n            amountToBuy;\n        require(\n            token.mint(msg.sender, amountToReward * 1 ether),\n            \"Reward tokens could not be sent\"\n        );\n    }\n\n    /// @dev Fallback function - Called if other functions don't match call or\n    ///         sent ether without data\n    function() external payable {\n        revert(\"Please use correct function\");\n    }\n\n    /// @notice ability to destroy the contract and remove it from the blockchain if necessary\n    function kill() external onlyOwner\n    {\n        if(msg.sender == owner()) selfdestruct(address(uint160(owner()))); // cast owner to address payable\n    }\n\n}\n",
  "sourcePath": "/Users/paulofaulstich/Dropbox/Workspace/blockchain/consensys/my-acme-store/contracts/Marketplace.sol",
  "compiler": {
    "name": "solc",
    "version": "0.5.0+commit.1d4f565a.Emscripten.clang"
  },
  "schemaVersion": "3.0.22",
  "updatedAt": "2020-02-01T04:26:06.018Z",
  "networkType": "ethereum",
  "devdoc": {
    "author": "paulofaulstich",
    "methods": {
      "buyProduct(uint256,uint256)": {
        "details": "for the purpose of this project, anyone can add an item",
        "params": {
          "amountToBuy": "amount of products to buy from previous id",
          "productId": "id of the product to buy"
        },
        "return": "true if transaction is successful"
      },
      "constructor": {
        "details": "Reward Token contract should be deployed first",
        "params": {
          "_token": "address of the Reward Token"
        }
      },
      "isOwner()": {
        "details": "Returns true if the caller is the current owner."
      },
      "newProduct(uint256,uint256,uint256)": {
        "details": "for the purpose of this project, anyone can add an product",
        "params": {
          "_price": "price for an individual product",
          "_quantity": "amount of products to make available for sale",
          "_tokenstoReward": "amount of RT tokens to reward the buyer for product purchased"
        },
        "return": "true if transaction is successful"
      },
      "owner()": {
        "details": "Returns the address of the current owner."
      },
      "renounceOwnership()": {
        "details": "Leaves the contract without owner. It will not be possible to call `onlyOwner` functions anymore. Can only be called by the current owner.     * NOTE: Renouncing ownership will leave the contract without an owner, thereby removing any functionality that is only available to the owner."
      },
      "transferOwnership(address)": {
        "details": "Transfers ownership of the contract to a new account (`newOwner`). Can only be called by the current owner."
      },
      "updateProduct(uint256,uint256,uint256,uint256)": {
        "details": "can only be called by the seller of the product"
      }
    },
    "title": "Marketplace and Reward System with ERC20 tokens (RT)"
  },
  "userdoc": {
    "methods": {
      "buyProduct(uint256,uint256)": {
        "notice": "Buy a product from the marketplace"
      },
      "constructor": "Initialize contract with default variables",
      "kill()": {
        "notice": "ability to destroy the contract and remove it from the blockchain if necessary"
      },
      "newProduct(uint256,uint256,uint256)": {
        "notice": "Add a new product to the Marketplace"
      },
      "toggleContractPaused()": {
        "notice": "Emergency stop for most function in the contract"
      },
      "updateProduct(uint256,uint256,uint256,uint256)": {
        "notice": "Update Existing product"
      },
      "updateSalesFee(uint256)": {
        "notice": "Update Reward Token contract address"
      },
      "updateTokenContract(address)": {
        "notice": "Update Reward Token contract address"
      }
    },
    "notice": "Clients can add new products to the Marketplace, specifying amount to sell (inventory) price and Reward tokens to send to the buyer for each product bought. Buyers can also buy products, specifying the amount and product Id. For each sale, there is a fee sent to the owner of the marketplace and the rest will go to the client (seller)"
  }
}